:020000040800F2
:1000000070020020D9000008290A000881090008B0
:1000100000000000000000000000000000000000E0
:10002000000000000000000000000000750D000846
:1000300000000000000000000D0C00083D0E00084C
:10004000EB000008EB00000800000000EB000008D7
:10005000EB000008EB000008EB000008EB000008D4
:100060000000000000000000000000000000000090
:10007000EB000008950E0008EB00000800000000EF
:10008000EB0000080000000000000000EB0000088A
:10009000000000000000000000000000EB0000086D
:1000A00000000000EB00000800000000D510000870
:1000B000EB0000080000000000000000000000004D
:1000C0000448854600F0A4FA00480047D51E000801
:1000D000C046C046700200200448804704480047DC
:1000E000FEE7FEE7FEE7FEE7FEE7FEE7550E000847
:1000F000C100000830B50B46014600202022012433
:1001000009E00D46D5409D4205D31D469540491B4B
:100110002546954040191546521E002DF1DC30BD94
:10012000D2B201E00270401C491EFBD2704700228F
:10013000F6E710B513460A4604461946FFF7F0FFE6
:10014000204610BD30B504460020034600E05B1C8D
:10015000934203D2E05CCD5C401BF8D030BD000080
:10016000F0B50C465C4085B0E40FE40703944C0006
:100170000026640859009446490802460296224324
:1001800021D062460A431ED06200570D4A000E037A
:100190002303550D012402462C492405781B1B0B13
:1001A000360B401823432643614600901C46501AE4
:1001B000B44103D30098401C009002E092180098CC
:1001C0005B41002803DA0020014605B0F0BD0020A5
:1001D000012109050746864611E064461D46141BA9
:1001E000B54106D36546521BB341744607430C43E1
:1001F000A646CD0740084908284392185B410546AA
:100200000D43EAD11046184313D0604619465040BA
:100210007140084306D06046101AB34106D201224D
:10022000002306E000220123DB0702E00122D24383
:100230005310009874460105381C6141029C039DCF
:100240000019694100F034F8BFE70000FD03000029
:10025000F0B51FB40646002082B005464024019147
:1002600000901BE0019922460F46304600F0F2F95B
:10027000049A059B801A994110D3104619462246CC
:1002800000F0D8F9361A8F4101972246012000214B
:10029000009F00F0CFF938184D4100902046641EB1
:1002A0000028DFDC019B00982946324607B0F0BDEC
:1002B00010B5002B08DA0024401C614192185B4104
:1002C0001A4301D14008400010BDF0B51FB482B000
:1002D00005460C0003D0084601F00CF902E001F0DD
:1002E00009F92030024600902146284600F0A2F984
:1002F000049B059A04460F4618431143084314D043
:10030000184610431BD0009840210A1A1846059938
:1003100000F0A0F905460E46009A0599049800F0F1
:1003200089F9084305D0012004E02046394607B08A
:10033000F0BD0020C11705430E432C4337430099FD
:100340000E986305401A7905E40A00220C43FD0A61
:100350000A3002D500200146E9E70105101969417C
:100360000C9C0D9D00196941FFF7A2FFDFE700001B
:10037000F0B507460846584087B0C00F04904800C3
:100380000E46590040084908BC1A884105D2384633
:1003900031461E4617460B46024658004008104399
:1003A0004DD0300D039040055900400D490D05908A
:1003B000401A0290402873DA18030121000B090546
:1003C0000843019004980092002806D01146019A33
:1003D00049420020904100910190029840210A1A60
:1003E0000199009800F026F905460C466B4607CBAC
:1003F00000F041F9C0197141039A0E0D0023D7177F
:1004000056401A467A40164344D0049A002A2DD00A
:10041000029A012A039A15DC1205C01A914101269D
:100420003605001C7141D20F059ED2070093019240
:1004300002962A462346FFF748FF07B0F0BD38462C
:100440003146FAE71605234A0F46B218C01AB741DB
:1004500001210905001C4F4100187F411146181861
:100460007941E20F10436D19644113E0E2076D0812
:1004700015436408C2071443039A01261205C01AE3
:1004800091413605001C7141CE07400830434908B0
:10049000C01851412A462346FFF70AFFCDE7FFE780
:1004A000049801224000C117121A00238B410498BE
:1004B0003146C417381AA141EEE730B40124E407ED
:1004C000634030BC54E730B40124E407614030BCE1
:1004D0004EE700000000E0FFF0B51FB488B00B99B4
:1004E0000998002448400999C00F4900490809911A
:1004F000C0070B990090490049080B910999089889
:10050000A64608431CD00B990A98084318D00998AE
:1005100001244000420D4800410D099824050003C4
:10052000000B204309900B980003000B20430B9015
:1005300050181C494018002201901446104605E04E
:10054000002001460DB0F0BD032801DA034600E0AB
:1005500003239C46C11A0AAE0AE05F0008ADED5BBA
:100560004F00F75B7D430027AA187C41491C5B1EA6
:100570006145F2DD410004AB5A522104120C0A43DA
:10058000240C401C0828DFDB01980290009970467B
:1005900001910090059B049A07990698FFF795FE34
:1005A000D0E700000DFCFFFF4A0009030123090BFF
:1005B0001B0519430A4B10B5520D9A4202DA00206E
:1005C000014610BD064B34339A4203DC9A1A00F000
:1005D00041F810BD034BD21800F02CF810BD0000FC
:1005E000FF030000CDFBFFFF10B5002904DB012451
:1005F000E40740428C412146002B04DB1C460123CA
:10060000DB075242A341994200D1904210BD000045
:10061000064C0125064E05E0E36807CC2B430C3C55
:1006200098471034B442F7D3FFF74EFD102200086C
:100630003022000810B5202A04DB0146203A914000
:10064000002010BD914020239C1A0346E34019432B
:10065000904010BD10B5202A04DB0846203AD04057
:10066000002110BD0B46D340D0402024A21A914057
:100670000843194610BD10B5202A06DBCB170846E3
:10068000203A1041C1170B4306E00B461341D040FE
:100690002024A21A91400843194610BD0149C860A0
:1006A000704700000020024010B504460848006969
:1006B0000221084306490861084644610069402157
:1006C000084303490861034800F07EF810BD0000AC
:1006D00000200240FF2F00000C48C068C007C00F78
:1006E000002801D0012070470848C0680421084054
:1006F000002801D00220F6E70448C0681021084015
:10070000002801D00320EEE70420ECE7002002409F
:1007100003480069802108430149086170470000CF
:100720000020024030B504460D460648006901210C
:100730000843044908612580FF20303000F044F868
:1007400030BD00000020024070B505460C46A1B245
:100750002846FFF7E7FF0646042E04D1210CA81C0B
:10076000FFF7E0FF0646304670BD10B5044600F0C6
:100770001FF83420FFF792FF2046FFF795FF202057
:10078000FFF78CFFFFF7C4FF10BD70B504460D46A0
:1007900000F00EF83420FFF781FF29462046FFF7CE
:1007A000D3FF2020FFF77AFFFFF7B2FF70BD0000F4
:1007B0000248034948600348486070472301674581
:1007C00000200240AB89EFCD10B50246042400BFE3
:1007D000FFF782FF0446521EFF2300E05B1E002B42
:1007E000FCD1012C01D1002AF2D107480069772100
:1007F0008843054908613420C860002A01D10520DA
:1008000010BD2046FCE700000020024008B5012191
:10081000480400F0FDF9684600F0A4F80121C9037E
:1008200068460180032181701021C170694609204A
:10083000C00600F029F80122D1030920C00600F00B
:1008400099F808BD38B505460C46684600F08AF8A8
:1008500068460480032181704821C170694628469A
:1008600000F012F838BD38B505460C46684600F071
:1008700079F868460480032181701021C1706946AF
:10088000284600F001F838BDF8B50246CD782F07AC
:100890003F0FCD7810263540002D01D08D782F43A5
:1008A0001446002011E085062B0E0D880126864097
:1008B0003540002D07D025680F269E40B5433E46A3
:1008C0009E4035432560451CE8B20828EBDB141D2B
:1008D0000D882D120095002011E085062B0E0125B4
:1008E0008540009E3540002D07D025680F269E408C
:1008F000B5433E469E4035432560451CE8B2082876
:10090000EBDBCD78282D04D155690E883543556130
:1009100006E0CD78482D03D115690E883543156161
:10092000F8BD70B54D07EB0E082902DA05462035F3
:1009300001E0054624352C460F269E402568B54328
:1009400016469E403543256070BD024690680840BB
:10095000002801D0012070470020FCE7416170476A
:10096000016170470021C943018003218170042186
:10097000C1707047002A01D0016100E041617047F9
:1009800000BFFEE710B508210920C006FFF76BFF86
:1009900002210920C006FFF766FF02210920C006D8
:1009A000FFF7DEFF08210920C006FFF7D9FF10BDC1
:1009B00010B502210920C006FFF7D2FF052000F084
:1009C00073F808210920C006FFF7CAFF052000F0D0
:1009D0006BF802210920C006FFF7C0FF052000F0D8
:1009E00063F808210920C006FFF7B8FF052000F0D2
:1009F0005BF810BD10B502210920C006FFF7AEFF5D
:100A0000052000F051F808210920C006FFF7A8FFD3
:100A1000052000F049F802210920C006FFF7A0FFD9
:100A2000052000F041F810BD7047000081780029D2
:100A300025D01749032212028918027892109200D9
:100A4000895802789207D30EFF229A409143427848
:100A50009207120E03789B07DB0E9A4011430C4A53
:100A600003231B02D21803789B109B00D1500178FE
:100A7000CA06D20E01219140054A116007E00178B3
:100A8000CA06D20E01219140014A8032116070479E
:100A900000E100E00349086000BF0249096800293D
:100AA000FBD170471C00002070B504460849486817
:100AB0000849FFF71FFB604306460521FFF71AFBB5
:100AC000054600E000BF28466D1E0028FAD170BD23
:100AD0006000002040420F0010B500F003F800F065
:100AE0002FF810BD10B5134800F0B2F8114948684E
:100AF0007D21C900FFF7FEFA0446601E0E498842B8
:100B000001D901200CE0601E0C4948610321081F37
:100B100000F016FD002009498861072008610020C7
:100B2000002801D000BFFEE70021481E00F008FDAC
:100B300010BD000060000020FFFFFF0000E000E0AB
:100B400008B50121480400F063F80021042000F0FA
:100B500011F86846FFF706FF0121C90368460180C6
:100B6000032181701021C17069460920C006FFF77A
:100B70008BFE08BD70B505460C462B0000F0D1FC7D
:100B80000504111E2A364300012C01D0012000E08B
:100B9000002002460121C9030920C006FFF7EAFE32
:100BA00032E0012C01D0012000E0002002460121AA
:100BB00089020920C006FFF7DDFE25E0012C01D0E7
:100BC000012000E00020024640210920C006FFF776
:100BD000D1FE19E0012C01D0012000E000200246E6
:100BE00020210920C006FFF7C5FE0DE0012C01D031
:100BF000012000E0002002460121C9030920C006AF
:100C0000FFF7B8FE00E000BF00BF70BD70470000F6
:100C1000002905D0054A52690243044B5A6104E099
:100C2000024A52698243014B5A61704700100240E8
:100C3000002905D0054AD2690243044BDA6104E079
:100C4000024AD2698243014BDA61704700100240C8
:100C500010B5002100221A4B5B680C242340194672
:100C6000002906D0042907D0082908D00C290CD166
:100C700008E0144B03600BE0124B036008E0124BDA
:100C8000036005E0114B036002E00E4B036000BF00
:100C900000BF0B4B5B68F024234019090C4B5A5CD6
:100CA0000368D3404360064B5B680724240223405B
:100CB000190A084B5A5C4368D340836010BD00009A
:100CC0000010024000127A00006CDC02409C000020
:100CD000200000203000002070B5054600240026CA
:100CE00002210920C006FFF7ADFD00BF1CE008216E
:100CF0000920C006FFF734FE6006040E0221092019
:100D0000C006FFF722FE002801D001200443052081
:100D1000FFF7CAFE08210920C006FFF71FFE0520C5
:100D2000FFF7C2FE701CC6B2082EE0DB02210920CC
:100D3000C006FFF798FD012D05D102210920C0064C
:100D4000FFF70CFE04E002210920C006FFF708FEB1
:100D50000520FFF7A9FE08210920C006FFF700FEC5
:100D60000520FFF7A1FE08210920C006FFF7F6FDC8
:100D7000204670BD704700001CB500200190012086
:100D80000090002428480068012108432649086093
:100D900000BF25480068022108400028F9D02348F8
:100DA0002349086023480068C008C0002149086042
:100DB00008460068102108431E4908601C4909685C
:100DC000481E1D49FFF796F90446012C00D901245D
:100DD0001848006820431749086013484468F02108
:100DE00020468843044600BF0F48446044680721FA
:100DF000090220468843044600BF0B48446040680F
:100E0000800880000849486008464068022108437D
:100E10000549486000E000BF034840680C210840D5
:100E20000828F8D11CBD000000100240006CDC0254
:100E3000380000200020024000366E01044800689F
:100E4000002804D002480068401E0149086070472D
:100E50001C00002010B50D480068012108430B4913
:100E60000860084640680A49084008494860084642
:100E70000068012109048843044908600020C04338
:100E8000886000208860FFF777FF10BD00100240E7
:100E90000CF8FFF810B501210D4800F071F800289A
:100EA00014D001200B4908700B480078401C0A49F7
:100EB000087008460078142804DB00200870012020
:100EC000064908700121024800F04BF810BD0000EF
:100ED000002C0140050000201B0000200400002021
:100EE00010B586B001210420FFF7A2FE684600F08D
:100EF000E7F8184800F052F804461749FFF7FAF8E7
:100F0000401E81B26846018000200190FF20F4302D
:100F100002900020039000216846017469460D4844
:100F200000F0A0F801210B4800F018F8012211464A
:100F3000084800F08DF80D216846017501214175C2
:100F4000817505A8FFF772FD0121024800F00CF839
:100F500006B010BD002C014010270000CA430261FA
:100F60007047CA4302617047002904D00268012318
:100F70001A43026003E002685208520002607047A0
:100F8000024610690840002805D0D06808400028B3
:100F900001D0012070470020FCE70000F0B58BB0C5
:100FA0000646002400200A900025002720A103C93E
:100FB0000991089020A001460EC9C06806930592C9
:100FC0000491079001A8FFF743FE039C1E48406868
:100FD000072109020840050A1C4886421DD11A480B
:100FE0004068F0210840070904A8C05D002808D126
:100FF00008A8405D002801D1204600E060000A906A
:1010000013E008A8405D002801D1600000E0A000C6
:1010100004A9C95DC8400A9007E008A8405D0028FF
:1010200001D1204600E060000A900A980BB0F0BDA4
:101030000000000002040810000000000000000092
:10104000010203040607080900100240002C0140B9
:10105000002A03D0C3680B43C36002E0C3688B431C
:10106000C360704710B5026803231B029A43032430
:101070002402CB6823401A4302600F4A904202D0F8
:101080000E4A904207D1026870239A4370244B683D
:1010900023401A430260084A904205D1026B120AAB
:1010A00012020B7C1A4302638A68C2620A88826257
:1010B0000122426110BD0000002C014000040040EC
:1010C0000021C943816000210180C1604160017439
:1010D0007047000010B5002420211A4800F0BDF828
:1010E00000282ED0174800F04DF9C4B22021154831
:1010F00000F032F814480078002822D10A2C0ED1D2
:10110000124801780078401C104A1070104844546E
:1011100000201049087001200B4908700AE00B48B4
:1011200001780078401C094A107009484454042092
:1011300008490870054800780A2802DB00200349A6
:10114000087010BD0038014003000020000000209E
:101150004000002001000020CA43026070470029BF
:1011600005D0C26801235B031A43C26004E0C26871
:1011700001235B039A43C2607047000010B588B03A
:1011800004461B216846017601214176817606A836
:10119000FFF74CFC01214804FFF73AFD01220D2125
:1011A0000920C006FFF7BDFB01220E210920C00661
:1011B000FFF7B7FB07A8FFF7D5FB012189036846B6
:1011C0008183032181771821C17707A90920C006EF
:1011D000FFF75AFB07A8FFF7C5FB01214903684643
:1011E0008183032181774821C17707A90920C0069F
:1011F000FFF74AFB01210804FFF71AFD01A800F0E0
:10120000CAF8019400200290039004900C200590ED
:1012100001A90C4800F06AF801221102094800F007
:101220004FF801221146074800F04AF80122202118
:10123000044800F045F801210248FFF790FF08B08C
:1012400010BD000000380140024610680840002828
:1012500001D0012070470020FCE710B502460020B5
:10126000102904D1136810242340180927E02029ED
:1012700004D1136820242340580920E0402904D1D8
:10128000136840242340980919E0802904D1136889
:1012900080242340D80912E0FF230133994203D16F
:1012A0001368D807C00F0AE0012908D113680E247B
:1012B0002340002B01D0012300E00023184610BD7D
:1012C000012909D1002A03D043690B4343610CE093
:1012D00043698B43436108E0002A03D0C3680B4392
:1012E000C36002E0C3688B43C3607047FEB5044629
:1012F0000D460026E068032149028843032252027A
:10130000E96811400843E060E0680121090388436F
:1013100001221203696811400843E060E0680C2173
:1013200088430C22296911400843E060206991023A
:1013300088439202A9681140084320616846FFF77C
:1013400087FC0E48844202D00D48844200D1029EA0
:10135000A068000D0005A06030092968FEF7CAFEEC
:101360000001A1680843A06030462968FEF7C2FE6C
:101370000007000FA1680843A060FEBD00380140CF
:101380000044004001464868C005C00D7047CA05CA
:10139000D20D426070474B21C901016000214160BC
:1013A0008160C1600C2101617047000010B50549E2
:1013B000032000F026F877210901042000F021F82D
:1013C00010BD00003E08000070B505460024FFF780
:1013D000EFFAC02000F02AF8284600F027F8FFF7BF
:1013E000E7FAC12000F022F80120FFF775FC04465F
:1013F0000020FFF771FC00020443FFF7FBFA2046D0
:1014000070BD70B505460C46FFF7D2FAC02000F05B
:101410000DF8284600F00AF8E0B200F007F82104C1
:10142000080E00F003F8FFF7E5FA70BD70B504464A
:101430000025002608210920C006FFF78FFA00BF0B
:1014400025E080202040002805D002210920C00688
:10145000FFF786FA04E002210920C006FFF77EFAB2
:101460000520FFF721FB08210920C006FFF778FAC5
:101470000520FFF719FB08210920C006FFF76EFAC7
:101480000520FFF711FB6006040E681CC5B2082D8D
:10149000D7DB02210920C006FFF7D4F90821092073
:1014A000C006FFF75DFA0520FFF7FEFA02210920CA
:1014B000C006FFF74AFA002800D0012608210920BB
:1014C000C006FFF74BFA02210920C006FFF7CBF94F
:1014D000304670BD0FB410B503A9044B044A0298FE
:1014E00000F034F910BC08BC04B01847B11E000865
:1014F0003C0000202021020C01D010211046020ADD
:1015000001D010460839020901D01046091F82088F
:1015100001D01046891E420801D0881E7047081A63
:10152000704730B47446641E2578641CAB4204D303
:10153000635D5B00E31830BC18471D46F8E7000008
:1015400010B5002819DB1A4A03231B02D21883089E
:101550009B00D2588307DC0EFF23A3409A438B07DE
:101560001B0E8407E40EA3401A43114B03242402EC
:101570001B198408A4001A5118E00E4A03071B0F18
:10158000083B9B089B00D2588307DC0EFF23A34037
:101590009A438B071B0E8407E40EA3401A43054BA6
:1015A0000407240F083CA408A4001A5110BD000031
:1015B00000E100E01CED00E002E008C8121F08C1D5
:1015C000002AFAD170477047002001E001C1121FC4
:1015D000002AFBD170470000F0B51FB486B009980F
:1015E000089A030D0021024314D05148514A18189B
:1015F000504305141198012810981AD0281A401C3D
:1016000000264D4F4D49009601910490002812DAB2
:10161000444211E01198012449A3012801D11098F6
:10162000C1430698119A84600360C26041600BB0A8
:10163000F0BD4042E4E70446210500203F4A001C7B
:1016400051410391029012E0E00707D032463B4639
:1016500001990098FEF740FF0191009032463B4609
:1016600010461946FEF738FF06460F466410002C58
:10167000EAD10498039B0028029A0999089806DA8F
:10168000FEF72AFF019B009AFEF726FF05E0FEF712
:1016900067FD019B009AFEF763FD04460E4600229B
:1016A000284BFEF7A1FF03D80020C043014607E006
:1016B0000022254B20463146FEF75AFEFEF774FF06
:1016C000102409E0002C0ADB0A220023FEF7C0FDEB
:1016D000079B30321A55641E02460A43F2D111228A
:1016E000641C079B121B1C19119B012B03D00123A7
:1016F00008430ED10AE0084304D0112010900020C6
:10170000119077E71098151A6D1E0BE01098824221
:1017100002DD00236D1C03E0824201DA00236D1E0E
:10172000002BEED0069811998260C16030C07EE730
:1017300001FCFFFF104D0000000014400000F03FCE
:10174000300000000000F0430000E03FFFB597B01C
:10175000064600251BE2252876D100242746F749B6
:10176000049400E00443761C32780120203A904033
:101770000842F7D130782A280ED00222307801466C
:101780003039092916D804990A23594330394018A9
:101790001443761C0490F1E7189802C8049118903D
:1017A000002904DA01204003044348420490022047
:1017B0000443761C30782E2814D10420044370781A
:1017C000761C2A2809D11898761C80C8189009E040
:1017D0000A214F43303FC719761C30780146303913
:1017E0000929F5D930786C2810D006DC4C281AD09D
:1017F00068280ED06A2817D104E0742813D07A28FC
:1018000012D110E00120400504430CE0012109053C
:1018100001E0032109050C437178814203D10120C5
:1018200000052418761C761C307866280BD013DC53
:1018300058287DD009DC00287BD04528F6D04628E2
:10184000F4D047281AD1A9E118E0632835D06428DC
:1018500070D0652812D1A1E170286CD008DC67280F
:10186000F1D069287DD06E280DD06F2806D1BCE05C
:1018700073282ED0752873D0782859D01A9A1999C0
:1018800090476D1C82E16002400F022809D00328B6
:101890000DD00428189801680DD00D60001D189017
:1018A00074E11898EA1701680D604A60F6E7189825
:1018B00001680D80F2E70D70F0E718986A4601782C
:1018C0001172001D18900020507202A80090012093
:1018D00005E0189802C8189000200091C0436107E5
:1018E0000ED5002101E00199491C0191B94213DA9A
:1018F0008142F8DB019A0099895C0029F3D10BE061
:10190000002101E00199491C01918142FADB019A11
:101910000099895C0029F5D1019904981A9B471A0E
:1019200021463846199A00F099FA4019019903E0C6
:1019300051E030E115E050E0451807E000980099CB
:101940000078491C00911A9A199990470198401EF5
:101950000190401CF2D1214638461A9B199A12E197
:1019600037E00A200021009001916002410F022916
:1019700007D0189A01CA1892C2179446032908D0B2
:101980000AE01898C01DC108C90005C918919446FD
:1019900007E000B2C2179446042902D140B2C11731
:1019A0008C4600226146944506DA0A4600214042F0
:1019B00091418C462D2102E0210504D52B216A4658
:1019C0001173012103E0E10701D02021F7E7029123
:1019D00056E00A200AE0102008E0102000900021C4
:1019E000042004430191082703E00820002101910D
:1019F00000906002410F022907D0189A01CA18927C
:101A000000229446032908D008E01898C01DC10898
:101A1000C90005C91891944603E080B2042900D199
:101A2000C0B20021029121072AD531780D91702989
:101A300006D0009A1021019B4A401A4305D00EE0BF
:101A400040216A461173012108E06146014306D036
:101A500030216A4611730D99517302210291009A47
:101A60000821019B4A401A430AD16146014301D132
:101A7000610705D530216A46117301217F1E02914D
:101A80003178582904D02EA10E910DA90D910DE0A9
:101A900030A1F9E76146019B009AFEF7D9FB0E9B46
:101AA0008C469B5C0D9A521E0D9213706146014349
:101AB000F0D10D9805A9081A20300190600703D5D0
:101AC00001200004844300E001270198874201DDE2
:101AD000381A00E000200199009041180298091876
:101AE0000498401A0490E00306D421461A9B199AE0
:101AF000049800F0B3F94519002706E003A81A9AE4
:101B0000C05D199990476D1C7F1C02988742F5DBD8
:101B1000E0030CD521461A9B199A049800F09EF90F
:101B2000451904E01A9A3020199990476D1C0099C4
:101B3000481E00900029F5DC1FE000000928010084
:101B40003031323334353637383961626364656633
:101B500000000000303132333435363738394142F5
:101B600043444546000000000D980D990078491C3B
:101B70000D911A9A199990476D1C0199481E019070
:101B80000029F1DC4DE100F059F94519761C307857
:101B9000002800D0DFE528461BB0F0BD600700D468
:101BA00006271898C01DC108C90048680A6808318E
:101BB000C30FDB071891190001D09CA108E0210593
:101BC00001D59BA104E0E10701D09AA100E09AA110
:101BD0004300109130785B0865280CD006DC45285E
:101BE00009D046281DD0472841D141E0662818D0A9
:101BF00067283CD13CE00021112F01DB112000E0DF
:101C0000781C0191009008A911A8FFF7E5FC139931
:101C100005910021119A15927F1C1298019700914D
:101C200050E00120C00703900120019008A900970F
:101C300011A8FFF7D1FC139A149905920022119B69
:101C4000009212981593059A0192002901D010462E
:101C500002E0791C40180190381A01D5019804E07F
:101C60004042401E0090781C0190C01B029043E04F
:101C7000012F00DA01270021112F01DD112000E0E2
:101C800038460191009008A911A8FFF7A5FC139907
:101C90000591119A00211298159200910197210740
:101CA0000CD40599B94201DB019900E001910129A9
:101CB00004DD159A491E515C302906D0B84201DA7C
:101CC000011D05DA0121029115E00199491EEDE798
:101CD000002805DC0099411800910199091A03E0D8
:101CE000019A411C914200DD01910099401A401C6B
:101CF00002900120C0070390200706D402990198A2
:101D0000814202DB0020C043029000206946C87770
:101D100007AF012103980337C907884224D0022066
:101D200011902B201290039800280CDA4042039067
:101D30002D20129007E00A210398FEF7DBF93031DD
:101D40007F1E039039701199481E11900029F2DC12
:101D500003980028EFD1791E12980870307820215E
:101D600008404530BF1E387006A8C01BC01D039038
:101D700010980078002800D001200199411802989D
:101D8000C0170918039809180498401A401E0490B7
:101D9000E00306D421461A9B199A049800F05EF8D5
:101DA000451910980078002803D01A9A199990477D
:101DB0006D1CE00324D521461A9B199A049800F063
:101DC0004DF845191CE00098002807DB009905989C
:101DD000884203DD1598405C199901E0199930207B
:101DE0001A9A904700986D1C401C00900298401E63
:101DF0000290002804D11A9A2E20199990476D1C40
:101E00000199481E01900029DDDC05E038781A9A16
:101E10007F1C199990476D1C0399481E0390002957
:101E2000F4DC21461A9B199A0498ACE62D000000B8
:101E30002B0000002000000000000000F8B5044660
:101E400000251E461746880404D405E039462020A4
:101E5000B0476D1C641EF9D52846F8BDFFB5044691
:101E6000002581B01E46C80301D5302700E0202799
:101E7000880404D505E038460399B0476D1C641EFC
:101E8000F9D5284605B0F0BD10B500240648046811
:101E9000601C002804D10D2421460348FEF775FC80
:101EA00002490C8010BD0000003C00080A00002020
:101EB00070B504460D46E1B20548FFF768FA00BF69
:101EC00040210348FFF7C0F90028F9D0204670BD33
:101ED00000380140FEF700FEFEF798FCFFF7D4FF44
:101EE000FEF750FDFFF762FA7D204001FEF7D2FDBC
:101EF000E1204002FFF742F98EA0FFF7EBFA93488A
:101F0000018893A0FFF7E6FAFEF7EAFF10E1944894
:101F1000007800287ED00820FFF756FA9149088003
:101F200008460188904802780078401C8E4B187053
:101F300050008E4A1152184600780A2802DB002011
:101F40001946087000208A4908608A4908700EE026
:101F50008848007840008549085A85490968401832
:101F60008349086083480078401C82490870814892
:101F700000780A28ECDB0A217D480068FEF7BAF8F1
:101F80007D4908800846008870490988884227DD15
:101F900000207A4908707A480078052804DA7848E1
:101FA0000078401C7649087075480078052840DBA9
:101FB00000207449087074480078002839D1012144
:101FC000C9030920C006FEF7CBFC70480078002842
:101FD00002D06FA0FFF77EFA01206B49087028E05D
:101FE00000206749087065480078052804DA6348CE
:101FF0000078401C6149087060480078052818DBAB
:102000000020614908705F480078002811D1012143
:10201000C90300E024E00920C006FEF79FFC5B48EE
:102020000078002802D05DA0FFF754FA012055493E
:1020300008705D48007800280FD05B480078401E8B
:102040005949087008460078002806D10A215748E7
:10205000FEF76DF8002056490870002040490870CE
:102060005448007800281CD04848007800280CD03C
:1020700046480078401E4549087008460078002808
:1020800003D100214C48FFF76AF840480078002847
:1020900004D03948018849A0FFF71CFA00204549BF
:1020A000087049480078012842D138480078002853
:1020B0003ED0062245A13D48FEF744F8002815D140
:1020C0004448FEF752FB2C480088434908602A48E0
:1020D00000881E490880404801683E48FEF755FBCD
:1020E000254801883DA0FFF7F5F918E0072240A137
:1020F0002E48FEF727F8002811D13FA0FFF7EAF994
:102100000520FEF7C7FC00BFBFF34F8F3E483F4995
:10211000C860BFF34F8F00BF00BF00BFFDE70A21BB
:102120002248FEF704F8002021490870264908706B
:10213000EDE60000546F75636853656E736F72202F
:10214000506F7765726564204F4E0A000A000020C8
:102150005468726573686F6C643D25640A00000002
:102160000500002006000020160000204A00002084
:102170001000002017000020080000201900002097
:102180001800002015000020140000201A00002074
:1021900052454C4159204F4E0A00000052454C41D7
:1021A00059204F46460A0000010000204000002050
:1021B000000000200400002000380140436F756ECD
:1021C000743D25640D0A000003000020536176650C
:1021D0000A000000003C00080C00002054687265F2
:1021E00073686F6C643D25642053617665640A00F2
:1021F00052657365740A000053656E736F722052E6
:10220000657365740A0000000400FA0500ED00E043
:10221000302200080000002040000000B81500082F
:10222000702200084000002030020000C81500089D
:10223000000000000000000000000000000000009E
:10224000000000000000000000003C000000000052
:102250000000000000000000010203040607080956
:102260000000000001020304006CDC02000000001A
:04000005080000C12E
:00000001FF
